{
  "_format": "hh-sol-artifact-1",
  "contractName": "BorrowRegistry",
  "sourceName": "contracts/BorrowRegistry.sol",
  "abi": [
    {
      "inputs": [],
      "stateMutability": "nonpayable",
      "type": "constructor"
    },
    {
      "inputs": [
        {
          "internalType": "address",
          "name": "owner",
          "type": "address"
        }
      ],
      "name": "OwnableInvalidOwner",
      "type": "error"
    },
    {
      "inputs": [
        {
          "internalType": "address",
          "name": "account",
          "type": "address"
        }
      ],
      "name": "OwnableUnauthorizedAccount",
      "type": "error"
    },
    {
      "anonymous": false,
      "inputs": [
        {
          "indexed": true,
          "internalType": "address",
          "name": "previousOwner",
          "type": "address"
        },
        {
          "indexed": true,
          "internalType": "address",
          "name": "newOwner",
          "type": "address"
        }
      ],
      "name": "OwnershipTransferred",
      "type": "event"
    },
    {
      "inputs": [
        {
          "internalType": "address",
          "name": "",
          "type": "address"
        }
      ],
      "name": "defaults",
      "outputs": [
        {
          "internalType": "uint256",
          "name": "",
          "type": "uint256"
        }
      ],
      "stateMutability": "view",
      "type": "function"
    },
    {
      "inputs": [
        {
          "internalType": "address",
          "name": "supplier",
          "type": "address"
        }
      ],
      "name": "getDefaults",
      "outputs": [
        {
          "internalType": "uint256",
          "name": "",
          "type": "uint256"
        }
      ],
      "stateMutability": "view",
      "type": "function"
    },
    {
      "inputs": [
        {
          "internalType": "address",
          "name": "supplier",
          "type": "address"
        }
      ],
      "name": "getLateRepayments",
      "outputs": [
        {
          "internalType": "uint256",
          "name": "",
          "type": "uint256"
        }
      ],
      "stateMutability": "view",
      "type": "function"
    },
    {
      "inputs": [
        {
          "internalType": "address",
          "name": "supplier",
          "type": "address"
        }
      ],
      "name": "getSuccessfulLoans",
      "outputs": [
        {
          "internalType": "uint256",
          "name": "",
          "type": "uint256"
        }
      ],
      "stateMutability": "view",
      "type": "function"
    },
    {
      "inputs": [
        {
          "internalType": "address",
          "name": "",
          "type": "address"
        }
      ],
      "name": "lateRepayments",
      "outputs": [
        {
          "internalType": "uint256",
          "name": "",
          "type": "uint256"
        }
      ],
      "stateMutability": "view",
      "type": "function"
    },
    {
      "inputs": [],
      "name": "lendingPool",
      "outputs": [
        {
          "internalType": "address",
          "name": "",
          "type": "address"
        }
      ],
      "stateMutability": "view",
      "type": "function"
    },
    {
      "inputs": [],
      "name": "owner",
      "outputs": [
        {
          "internalType": "address",
          "name": "",
          "type": "address"
        }
      ],
      "stateMutability": "view",
      "type": "function"
    },
    {
      "inputs": [
        {
          "internalType": "address",
          "name": "supplier",
          "type": "address"
        },
        {
          "internalType": "uint256",
          "name": "invoiceId",
          "type": "uint256"
        }
      ],
      "name": "recordBorrow",
      "outputs": [],
      "stateMutability": "nonpayable",
      "type": "function"
    },
    {
      "inputs": [
        {
          "internalType": "address",
          "name": "supplier",
          "type": "address"
        },
        {
          "internalType": "uint256",
          "name": "invoiceId",
          "type": "uint256"
        }
      ],
      "name": "recordDefault",
      "outputs": [],
      "stateMutability": "nonpayable",
      "type": "function"
    },
    {
      "inputs": [
        {
          "internalType": "address",
          "name": "supplier",
          "type": "address"
        },
        {
          "internalType": "uint256",
          "name": "invoiceId",
          "type": "uint256"
        },
        {
          "internalType": "bool",
          "name": "wasLate",
          "type": "bool"
        }
      ],
      "name": "recordRepayment",
      "outputs": [],
      "stateMutability": "nonpayable",
      "type": "function"
    },
    {
      "inputs": [],
      "name": "renounceOwnership",
      "outputs": [],
      "stateMutability": "nonpayable",
      "type": "function"
    },
    {
      "inputs": [
        {
          "internalType": "address",
          "name": "_lendingPool",
          "type": "address"
        }
      ],
      "name": "setLendingPool",
      "outputs": [],
      "stateMutability": "nonpayable",
      "type": "function"
    },
    {
      "inputs": [
        {
          "internalType": "address",
          "name": "",
          "type": "address"
        }
      ],
      "name": "successfulLoans",
      "outputs": [
        {
          "internalType": "uint256",
          "name": "",
          "type": "uint256"
        }
      ],
      "stateMutability": "view",
      "type": "function"
    },
    {
      "inputs": [
        {
          "internalType": "address",
          "name": "newOwner",
          "type": "address"
        }
      ],
      "name": "transferOwnership",
      "outputs": [],
      "stateMutability": "nonpayable",
      "type": "function"
    }
  ],
  "bytecode": "0x608060405234801561001057600080fd5b50338061003757604051631e4fbdf760e01b81526000600482015260240160405180910390fd5b61004081610046565b50610096565b600080546001600160a01b038381166001600160a01b0319831681178455604051919092169283917f8be0079c531659141344cd1fd0a4f28419497f9722a3daafe3b4186f6b6457e09190a35050565b6105e3806100a56000396000f3fe608060405234801561001057600080fd5b50600436106100ea5760003560e01c8063a59a99731161008c578063c48f139211610066578063c48f139214610225578063cd4544f214610238578063dd1b48f81461024b578063f2fde38b1461026b57600080fd5b8063a59a9973146101d6578063aa3b3e60146101e9578063baae45e11461021257600080fd5b80634e56dcea116100c85780634e56dcea14610160578063715018a6146101895780638a75dafd146101915780638da5cb5b146101b157600080fd5b806301893d07146100ef578063113aa8b1146101225780632937238914610137575b600080fd5b61010f6100fd3660046104be565b60026020526000908152604090205481565b6040519081526020015b60405180910390f35b6101356101303660046104be565b61027e565b005b61010f6101453660046104be565b6001600160a01b031660009081526003602052604090205490565b61010f61016e3660046104be565b6001600160a01b031660009081526004602052604090205490565b6101356102a8565b61010f61019f3660046104be565b60046020526000908152604090205481565b6000546001600160a01b03165b6040516001600160a01b039091168152602001610119565b6001546101be906001600160a01b031681565b61010f6101f73660046104be565b6001600160a01b031660009081526002602052604090205490565b6101356102203660046104e0565b6102bc565b61013561023336600461050a565b6102f3565b6101356102463660046104e0565b61038b565b61010f6102593660046104be565b60036020526000908152604090205481565b6101356102793660046104be565b6103e7565b610286610425565b600180546001600160a01b0319166001600160a01b0392909216919091179055565b6102b0610425565b6102ba6000610452565b565b6001546001600160a01b031633146102ef5760405162461bcd60e51b81526004016102e69061054f565b60405180910390fd5b5050565b6001546001600160a01b0316331461031d5760405162461bcd60e51b81526004016102e69061054f565b8015610357576001600160a01b038316600090815260036020526040812080546001929061034c908490610586565b909155506103869050565b6001600160a01b0383166000908152600460205260408120805460019290610380908490610586565b90915550505b505050565b6001546001600160a01b031633146103b55760405162461bcd60e51b81526004016102e69061054f565b6001600160a01b03821660009081526002602052604081208054600192906103de908490610586565b90915550505050565b6103ef610425565b6001600160a01b03811661041957604051631e4fbdf760e01b8152600060048201526024016102e6565b61042281610452565b50565b6000546001600160a01b031633146102ba5760405163118cdaa760e01b81523360048201526024016102e6565b600080546001600160a01b038381166001600160a01b0319831681178455604051919092169283917f8be0079c531659141344cd1fd0a4f28419497f9722a3daafe3b4186f6b6457e09190a35050565b80356001600160a01b03811681146104b957600080fd5b919050565b6000602082840312156104d057600080fd5b6104d9826104a2565b9392505050565b600080604083850312156104f357600080fd5b6104fc836104a2565b946020939093013593505050565b60008060006060848603121561051f57600080fd5b610528846104a2565b9250602084013591506040840135801515811461054457600080fd5b809150509250925092565b60208082526019908201527f4f6e6c79204c656e64696e67506f6f6c2063616e2063616c6c00000000000000604082015260600190565b808201808211156105a757634e487b7160e01b600052601160045260246000fd5b9291505056fea2646970667358221220c38edc5636d515185db6d844f946daf40367cda5222d53d1381b5979734daf1164736f6c63430008140033",
  "linkReferences": {},
  "deployedLinkReferences": {}
}