{
  "_format": "hh-sol-artifact-1",
  "contractName": "LendingPool",
  "sourceName": "contracts/LendingPool.sol",
  "abi": [
    {
      "inputs": [
        {
          "internalType": "address",
          "name": "_metrikToken",
          "type": "address"
        },
        {
          "internalType": "address",
          "name": "_stablecoin",
          "type": "address"
        },
        {
          "internalType": "address",
          "name": "_invoiceNFT",
          "type": "address"
        },
        {
          "internalType": "address",
          "name": "_staking",
          "type": "address"
        }
      ],
      "stateMutability": "nonpayable",
      "type": "constructor"
    },
    {
      "inputs": [],
      "name": "InsufficientBalance",
      "type": "error"
    },
    {
      "inputs": [],
      "name": "InsufficientLiquidity",
      "type": "error"
    },
    {
      "inputs": [],
      "name": "InvalidAmount",
      "type": "error"
    },
    {
      "inputs": [],
      "name": "InvalidBorrowAmount",
      "type": "error"
    },
    {
      "inputs": [],
      "name": "InvoiceExpired",
      "type": "error"
    },
    {
      "inputs": [],
      "name": "InvoiceNotVerified",
      "type": "error"
    },
    {
      "inputs": [],
      "name": "LoanAlreadyExists",
      "type": "error"
    },
    {
      "inputs": [],
      "name": "LoanAlreadySettled",
      "type": "error"
    },
    {
      "inputs": [],
      "name": "LoanNotOverdue",
      "type": "error"
    },
    {
      "inputs": [],
      "name": "NoStakedTokensFound",
      "type": "error"
    },
    {
      "inputs": [],
      "name": "NotInvoiceSupplier",
      "type": "error"
    },
    {
      "inputs": [],
      "name": "NotLoanOwner",
      "type": "error"
    },
    {
      "inputs": [
        {
          "internalType": "address",
          "name": "owner",
          "type": "address"
        }
      ],
      "name": "OwnableInvalidOwner",
      "type": "error"
    },
    {
      "inputs": [
        {
          "internalType": "address",
          "name": "account",
          "type": "address"
        }
      ],
      "name": "OwnableUnauthorizedAccount",
      "type": "error"
    },
    {
      "inputs": [],
      "name": "ReentrancyGuardReentrantCall",
      "type": "error"
    },
    {
      "inputs": [
        {
          "internalType": "address",
          "name": "token",
          "type": "address"
        }
      ],
      "name": "SafeERC20FailedOperation",
      "type": "error"
    },
    {
      "anonymous": false,
      "inputs": [
        {
          "indexed": true,
          "internalType": "address",
          "name": "user",
          "type": "address"
        },
        {
          "indexed": false,
          "internalType": "uint256",
          "name": "invoiceId",
          "type": "uint256"
        },
        {
          "indexed": false,
          "internalType": "uint256",
          "name": "amount",
          "type": "uint256"
        }
      ],
      "name": "Borrow",
      "type": "event"
    },
    {
      "anonymous": false,
      "inputs": [
        {
          "indexed": false,
          "internalType": "string",
          "name": "message",
          "type": "string"
        },
        {
          "indexed": true,
          "internalType": "address",
          "name": "supplier",
          "type": "address"
        }
      ],
      "name": "DebugLog",
      "type": "event"
    },
    {
      "anonymous": false,
      "inputs": [
        {
          "indexed": false,
          "internalType": "string",
          "name": "message",
          "type": "string"
        },
        {
          "indexed": false,
          "internalType": "uint256",
          "name": "value",
          "type": "uint256"
        }
      ],
      "name": "DebugLogValue",
      "type": "event"
    },
    {
      "anonymous": false,
      "inputs": [
        {
          "indexed": true,
          "internalType": "address",
          "name": "user",
          "type": "address"
        },
        {
          "indexed": false,
          "internalType": "uint256",
          "name": "amount",
          "type": "uint256"
        }
      ],
      "name": "Deposit",
      "type": "event"
    },
    {
      "anonymous": false,
      "inputs": [
        {
          "indexed": true,
          "internalType": "address",
          "name": "user",
          "type": "address"
        },
        {
          "indexed": false,
          "internalType": "uint256",
          "name": "amount",
          "type": "uint256"
        }
      ],
      "name": "InterestWithdraw",
      "type": "event"
    },
    {
      "anonymous": false,
      "inputs": [
        {
          "indexed": true,
          "internalType": "uint256",
          "name": "invoiceId",
          "type": "uint256"
        }
      ],
      "name": "InvoiceBurned",
      "type": "event"
    },
    {
      "anonymous": false,
      "inputs": [
        {
          "indexed": true,
          "internalType": "uint256",
          "name": "invoiceId",
          "type": "uint256"
        },
        {
          "indexed": true,
          "internalType": "address",
          "name": "liquidator",
          "type": "address"
        },
        {
          "indexed": false,
          "internalType": "uint256",
          "name": "amount",
          "type": "uint256"
        }
      ],
      "name": "Liquidate",
      "type": "event"
    },
    {
      "anonymous": false,
      "inputs": [
        {
          "indexed": true,
          "internalType": "uint256",
          "name": "invoiceId",
          "type": "uint256"
        },
        {
          "indexed": true,
          "internalType": "address",
          "name": "supplier",
          "type": "address"
        },
        {
          "indexed": false,
          "internalType": "uint256",
          "name": "amount",
          "type": "uint256"
        }
      ],
      "name": "LoanCreated",
      "type": "event"
    },
    {
      "anonymous": false,
      "inputs": [
        {
          "indexed": true,
          "internalType": "uint256",
          "name": "invoiceId",
          "type": "uint256"
        },
        {
          "indexed": true,
          "internalType": "address",
          "name": "supplier",
          "type": "address"
        },
        {
          "indexed": false,
          "internalType": "uint256",
          "name": "amount",
          "type": "uint256"
        }
      ],
      "name": "LoanLiquidated",
      "type": "event"
    },
    {
      "anonymous": false,
      "inputs": [
        {
          "indexed": true,
          "internalType": "uint256",
          "name": "invoiceId",
          "type": "uint256"
        },
        {
          "indexed": true,
          "internalType": "address",
          "name": "supplier",
          "type": "address"
        },
        {
          "indexed": false,
          "internalType": "uint256",
          "name": "amount",
          "type": "uint256"
        }
      ],
      "name": "LoanRepaid",
      "type": "event"
    },
    {
      "anonymous": false,
      "inputs": [
        {
          "indexed": true,
          "internalType": "address",
          "name": "previousOwner",
          "type": "address"
        },
        {
          "indexed": true,
          "internalType": "address",
          "name": "newOwner",
          "type": "address"
        }
      ],
      "name": "OwnershipTransferred",
      "type": "event"
    },
    {
      "anonymous": false,
      "inputs": [
        {
          "indexed": true,
          "internalType": "address",
          "name": "user",
          "type": "address"
        },
        {
          "indexed": false,
          "internalType": "uint256",
          "name": "invoiceId",
          "type": "uint256"
        },
        {
          "indexed": false,
          "internalType": "uint256",
          "name": "amount",
          "type": "uint256"
        }
      ],
      "name": "Repay",
      "type": "event"
    },
    {
      "anonymous": false,
      "inputs": [
        {
          "indexed": false,
          "internalType": "string",
          "name": "supplierId",
          "type": "string"
        }
      ],
      "name": "SupplierBlacklisted",
      "type": "event"
    },
    {
      "anonymous": false,
      "inputs": [
        {
          "indexed": true,
          "internalType": "address",
          "name": "user",
          "type": "address"
        },
        {
          "indexed": false,
          "internalType": "uint256",
          "name": "amount",
          "type": "uint256"
        }
      ],
      "name": "Withdraw",
      "type": "event"
    },
    {
      "inputs": [],
      "name": "BASIS_POINTS",
      "outputs": [
        {
          "internalType": "uint256",
          "name": "",
          "type": "uint256"
        }
      ],
      "stateMutability": "view",
      "type": "function"
    },
    {
      "inputs": [],
      "name": "BORROWER_INTEREST_RATE",
      "outputs": [
        {
          "internalType": "uint256",
          "name": "",
          "type": "uint256"
        }
      ],
      "stateMutability": "view",
      "type": "function"
    },
    {
      "inputs": [],
      "name": "BORROW_CAP_PERCENTAGE",
      "outputs": [
        {
          "internalType": "uint256",
          "name": "",
          "type": "uint256"
        }
      ],
      "stateMutability": "view",
      "type": "function"
    },
    {
      "inputs": [],
      "name": "LP_INTEREST_RATE",
      "outputs": [
        {
          "internalType": "uint256",
          "name": "",
          "type": "uint256"
        }
      ],
      "stateMutability": "view",
      "type": "function"
    },
    {
      "inputs": [],
      "name": "PLATFORM_FEE",
      "outputs": [
        {
          "internalType": "uint256",
          "name": "",
          "type": "uint256"
        }
      ],
      "stateMutability": "view",
      "type": "function"
    },
    {
      "inputs": [
        {
          "internalType": "string",
          "name": "",
          "type": "string"
        }
      ],
      "name": "blacklistedSuppliers",
      "outputs": [
        {
          "internalType": "bool",
          "name": "",
          "type": "bool"
        }
      ],
      "stateMutability": "view",
      "type": "function"
    },
    {
      "inputs": [],
      "name": "borrowRegistry",
      "outputs": [
        {
          "internalType": "contract IBorrowRegistry",
          "name": "",
          "type": "address"
        }
      ],
      "stateMutability": "view",
      "type": "function"
    },
    {
      "inputs": [
        {
          "internalType": "uint256",
          "name": "principal",
          "type": "uint256"
        },
        {
          "internalType": "uint256",
          "name": "startTime",
          "type": "uint256"
        },
        {
          "internalType": "uint256",
          "name": "rate",
          "type": "uint256"
        }
      ],
      "name": "calculateInterest",
      "outputs": [
        {
          "internalType": "uint256",
          "name": "",
          "type": "uint256"
        }
      ],
      "stateMutability": "view",
      "type": "function"
    },
    {
      "inputs": [
        {
          "internalType": "uint256",
          "name": "amount",
          "type": "uint256"
        }
      ],
      "name": "deposit",
      "outputs": [],
      "stateMutability": "nonpayable",
      "type": "function"
    },
    {
      "inputs": [
        {
          "internalType": "uint256",
          "name": "tokenId",
          "type": "uint256"
        },
        {
          "internalType": "uint256",
          "name": "borrowAmount",
          "type": "uint256"
        }
      ],
      "name": "depositInvoiceAndBorrow",
      "outputs": [],
      "stateMutability": "nonpayable",
      "type": "function"
    },
    {
      "inputs": [
        {
          "internalType": "address",
          "name": "user",
          "type": "address"
        }
      ],
      "name": "getBorrowingCapacity",
      "outputs": [
        {
          "internalType": "uint256",
          "name": "ltv",
          "type": "uint256"
        }
      ],
      "stateMutability": "view",
      "type": "function"
    },
    {
      "inputs": [
        {
          "internalType": "address",
          "name": "lp",
          "type": "address"
        }
      ],
      "name": "getLPInterest",
      "outputs": [
        {
          "internalType": "uint256",
          "name": "",
          "type": "uint256"
        }
      ],
      "stateMutability": "view",
      "type": "function"
    },
    {
      "inputs": [
        {
          "internalType": "uint256",
          "name": "tokenId",
          "type": "uint256"
        }
      ],
      "name": "getMaxBorrowAmount",
      "outputs": [
        {
          "internalType": "uint256",
          "name": "",
          "type": "uint256"
        }
      ],
      "stateMutability": "view",
      "type": "function"
    },
    {
      "inputs": [
        {
          "internalType": "address",
          "name": "user",
          "type": "address"
        }
      ],
      "name": "getUserActiveLoans",
      "outputs": [
        {
          "internalType": "uint256[]",
          "name": "",
          "type": "uint256[]"
        }
      ],
      "stateMutability": "view",
      "type": "function"
    },
    {
      "inputs": [
        {
          "internalType": "address",
          "name": "user",
          "type": "address"
        },
        {
          "internalType": "uint256",
          "name": "tokenId",
          "type": "uint256"
        }
      ],
      "name": "getUserLoanDetails",
      "outputs": [
        {
          "internalType": "uint256",
          "name": "amount",
          "type": "uint256"
        },
        {
          "internalType": "uint256",
          "name": "dueDate",
          "type": "uint256"
        },
        {
          "internalType": "bool",
          "name": "isRepaid",
          "type": "bool"
        },
        {
          "internalType": "bool",
          "name": "isLiquidated",
          "type": "bool"
        },
        {
          "internalType": "uint256",
          "name": "interestAccrued",
          "type": "uint256"
        }
      ],
      "stateMutability": "view",
      "type": "function"
    },
    {
      "inputs": [
        {
          "internalType": "address",
          "name": "user",
          "type": "address"
        }
      ],
      "name": "getUserLoans",
      "outputs": [
        {
          "internalType": "uint256[]",
          "name": "",
          "type": "uint256[]"
        }
      ],
      "stateMutability": "view",
      "type": "function"
    },
    {
      "inputs": [
        {
          "internalType": "address",
          "name": "user",
          "type": "address"
        }
      ],
      "name": "getUserTotalBorrowed",
      "outputs": [
        {
          "internalType": "uint256",
          "name": "",
          "type": "uint256"
        }
      ],
      "stateMutability": "view",
      "type": "function"
    },
    {
      "inputs": [],
      "name": "iStaking",
      "outputs": [
        {
          "internalType": "contract IStaking",
          "name": "",
          "type": "address"
        }
      ],
      "stateMutability": "view",
      "type": "function"
    },
    {
      "inputs": [],
      "name": "invoiceNFT",
      "outputs": [
        {
          "internalType": "contract InvoiceNFT",
          "name": "",
          "type": "address"
        }
      ],
      "stateMutability": "view",
      "type": "function"
    },
    {
      "inputs": [],
      "name": "lastInterestUpdate",
      "outputs": [
        {
          "internalType": "uint256",
          "name": "",
          "type": "uint256"
        }
      ],
      "stateMutability": "view",
      "type": "function"
    },
    {
      "inputs": [
        {
          "internalType": "uint256",
          "name": "invoiceId",
          "type": "uint256"
        },
        {
          "internalType": "string",
          "name": "supplierId",
          "type": "string"
        }
      ],
      "name": "liquidate",
      "outputs": [],
      "stateMutability": "nonpayable",
      "type": "function"
    },
    {
      "inputs": [
        {
          "internalType": "uint256",
          "name": "",
          "type": "uint256"
        }
      ],
      "name": "loans",
      "outputs": [
        {
          "internalType": "uint256",
          "name": "invoiceId",
          "type": "uint256"
        },
        {
          "internalType": "uint256",
          "name": "amount",
          "type": "uint256"
        },
        {
          "internalType": "uint256",
          "name": "dueDate",
          "type": "uint256"
        },
        {
          "internalType": "bool",
          "name": "isRepaid",
          "type": "bool"
        },
        {
          "internalType": "bool",
          "name": "isLiquidated",
          "type": "bool"
        },
        {
          "internalType": "uint256",
          "name": "interestAccrued",
          "type": "uint256"
        },
        {
          "internalType": "uint256",
          "name": "lastInterestUpdate",
          "type": "uint256"
        },
        {
          "internalType": "address",
          "name": "supplier",
          "type": "address"
        },
        {
          "internalType": "uint256",
          "name": "borrowAmount",
          "type": "uint256"
        },
        {
          "internalType": "uint256",
          "name": "borrowTime",
          "type": "uint256"
        }
      ],
      "stateMutability": "view",
      "type": "function"
    },
    {
      "inputs": [
        {
          "internalType": "address",
          "name": "",
          "type": "address"
        },
        {
          "internalType": "uint256",
          "name": "",
          "type": "uint256"
        }
      ],
      "name": "lpDeposits",
      "outputs": [
        {
          "internalType": "uint256",
          "name": "amount",
          "type": "uint256"
        },
        {
          "internalType": "uint256",
          "name": "depositTime",
          "type": "uint256"
        },
        {
          "internalType": "uint256",
          "name": "lastInterestClaimed",
          "type": "uint256"
        },
        {
          "internalType": "uint256",
          "name": "withdrawnAmount",
          "type": "uint256"
        }
      ],
      "stateMutability": "view",
      "type": "function"
    },
    {
      "inputs": [
        {
          "internalType": "address",
          "name": "",
          "type": "address"
        }
      ],
      "name": "lpInfo",
      "outputs": [
        {
          "internalType": "uint256",
          "name": "depositAmount",
          "type": "uint256"
        },
        {
          "internalType": "uint256",
          "name": "interestAccrued",
          "type": "uint256"
        },
        {
          "internalType": "uint256",
          "name": "lastInterestUpdate",
          "type": "uint256"
        }
      ],
      "stateMutability": "view",
      "type": "function"
    },
    {
      "inputs": [],
      "name": "metrikToken",
      "outputs": [
        {
          "internalType": "contract IERC20",
          "name": "",
          "type": "address"
        }
      ],
      "stateMutability": "view",
      "type": "function"
    },
    {
      "inputs": [],
      "name": "owner",
      "outputs": [
        {
          "internalType": "address",
          "name": "",
          "type": "address"
        }
      ],
      "stateMutability": "view",
      "type": "function"
    },
    {
      "inputs": [],
      "name": "platformFees",
      "outputs": [
        {
          "internalType": "uint256",
          "name": "",
          "type": "uint256"
        }
      ],
      "stateMutability": "view",
      "type": "function"
    },
    {
      "inputs": [],
      "name": "renounceOwnership",
      "outputs": [],
      "stateMutability": "nonpayable",
      "type": "function"
    },
    {
      "inputs": [
        {
          "internalType": "uint256",
          "name": "invoiceId",
          "type": "uint256"
        }
      ],
      "name": "repay",
      "outputs": [],
      "stateMutability": "nonpayable",
      "type": "function"
    },
    {
      "inputs": [
        {
          "internalType": "address",
          "name": "_borrowRegistry",
          "type": "address"
        }
      ],
      "name": "setBorrowRegistry",
      "outputs": [],
      "stateMutability": "nonpayable",
      "type": "function"
    },
    {
      "inputs": [],
      "name": "stablecoin",
      "outputs": [
        {
          "internalType": "contract IERC20",
          "name": "",
          "type": "address"
        }
      ],
      "stateMutability": "view",
      "type": "function"
    },
    {
      "inputs": [],
      "name": "staking",
      "outputs": [
        {
          "internalType": "contract Staking",
          "name": "",
          "type": "address"
        }
      ],
      "stateMutability": "view",
      "type": "function"
    },
    {
      "inputs": [],
      "name": "totalBorrowed",
      "outputs": [
        {
          "internalType": "uint256",
          "name": "",
          "type": "uint256"
        }
      ],
      "stateMutability": "view",
      "type": "function"
    },
    {
      "inputs": [],
      "name": "totalDeposits",
      "outputs": [
        {
          "internalType": "uint256",
          "name": "",
          "type": "uint256"
        }
      ],
      "stateMutability": "view",
      "type": "function"
    },
    {
      "inputs": [
        {
          "internalType": "address",
          "name": "newOwner",
          "type": "address"
        }
      ],
      "name": "transferOwnership",
      "outputs": [],
      "stateMutability": "nonpayable",
      "type": "function"
    },
    {
      "inputs": [
        {
          "internalType": "address",
          "name": "",
          "type": "address"
        },
        {
          "internalType": "uint256",
          "name": "",
          "type": "uint256"
        }
      ],
      "name": "userActiveLoans",
      "outputs": [
        {
          "internalType": "bool",
          "name": "",
          "type": "bool"
        }
      ],
      "stateMutability": "view",
      "type": "function"
    },
    {
      "inputs": [
        {
          "internalType": "address",
          "name": "",
          "type": "address"
        },
        {
          "internalType": "uint256",
          "name": "",
          "type": "uint256"
        }
      ],
      "name": "userLoans",
      "outputs": [
        {
          "internalType": "uint256",
          "name": "",
          "type": "uint256"
        }
      ],
      "stateMutability": "view",
      "type": "function"
    },
    {
      "inputs": [
        {
          "internalType": "address",
          "name": "",
          "type": "address"
        }
      ],
      "name": "userTotalBorrowed",
      "outputs": [
        {
          "internalType": "uint256",
          "name": "",
          "type": "uint256"
        }
      ],
      "stateMutability": "view",
      "type": "function"
    },
    {
      "inputs": [
        {
          "internalType": "uint256",
          "name": "amount",
          "type": "uint256"
        }
      ],
      "name": "withdraw",
      "outputs": [],
      "stateMutability": "nonpayable",
      "type": "function"
    },
    {
      "inputs": [],
      "name": "withdrawInterest",
      "outputs": [],
      "stateMutability": "nonpayable",
      "type": "function"
    },
    {
      "inputs": [],
      "name": "withdrawPlatformFees",
      "outputs": [],
      "stateMutability": "nonpayable",
      "type": "function"
    }
  ],
  "bytecode": "0x6101206040523480156200001257600080fd5b506040516200353038038062003530833981016040819052620000359162000109565b600160005533806200006157604051631e4fbdf760e01b81526000600482015260240160405180910390fd5b6200006c816200009a565b506001600160a01b0393841660805291831660a052821660c0521660e0819052610100524260065562000166565b600180546001600160a01b038381166001600160a01b0319831681179093556040519116919082907f8be0079c531659141344cd1fd0a4f28419497f9722a3daafe3b4186f6b6457e090600090a35050565b80516001600160a01b03811681146200010457600080fd5b919050565b600080600080608085870312156200012057600080fd5b6200012b85620000ec565b93506200013b60208601620000ec565b92506200014b60408601620000ec565b91506200015b60608601620000ec565b905092959194509250565b60805160a05160c05160e0516101005161330e6200022260003960008181610316015281816126f8015281816127e6015261287601526000818161048901528181611a6c0152611f9c01526000818161041b01528181610a7901528181610bc801528181610e3c01528181611842015281816119b9015261207a0152600081816106c6015281816108f0015281816111300152818161147c015281816116d70152818161221e015261255c01526000610525015261330e6000f3fe608060405234801561001057600080fd5b50600436106102525760003560e01c8063587beabc116101465780639dd27538116100c3578063e1ec3c6811610087578063e1ec3c68146105f4578063e1f1c4a7146106b8578063e9cbd822146106c1578063eb084ad0146106e8578063f034bf0914610708578063f2fde38b1461071157600080fd5b80639dd2753814610585578063b6b55f25146105b3578063b8e9c533146105c6578063d0b7830b146105d9578063d8bad5bd146105e157600080fd5b8063715018a61161010a578063715018a61461054757806374b521421461054f5780637d882097146105585780638da5cb5b146105615780639144995d1461057257600080fd5b8063587beabc146104b45780635e1810c6146104c757806361a4d4ef146104fa5780636bfbc3091461050d5780636f4670ae1461052057600080fd5b806334fbc9a1116101d45780634bb6f06d116101985780634bb6f06d146104165780634c19386c1461043d5780634c5df94c146104465780634cf088d9146104845780634d9c4686146104ab57600080fd5b806334fbc9a1146103b7578063371fd8e6146103bf57806341af32a6146103d257806341e05aae146103da5780634607506a146103ed57600080fd5b8063194a4e7e1161021b578063194a4e7e146103085780632458988b146103115780632a196afb146103505780632e1a7d4d1461039157806334a1e0d7146103a457600080fd5b806263750c1461025757806302bf321f1461026157806305e1bd8c1461028a57806311067f6a146102ab57806315e70995146102f5575b600080fd5b61025f610724565b005b61027461026f366004612d0b565b61095a565b6040516102819190612d2f565b60405180910390f35b61029d610298366004612d73565b6109c6565b604051908152602001610281565b6102da6102b9366004612d0b565b60076020526000908152604090208054600182015460029092015490919083565b60408051938452602084019290925290820152606001610281565b61025f610303366004612d9f565b610a37565b61029d60055481565b6103387f000000000000000000000000000000000000000000000000000000000000000081565b6040516001600160a01b039091168152602001610281565b61036361035e366004612dc1565b6111ad565b604080519586526020860194909452911515928401929092529015156060830152608082015260a001610281565b61025f61039f366004612ded565b6112ae565b61029d6103b2366004612d0b565b6114e8565b61029d60c881565b61025f6103cd366004612ded565b6115aa565b61029d603c81565b61025f6103e8366004612d0b565b611926565b61029d6103fb366004612d0b565b6001600160a01b03166000908152600c602052604090205490565b6103387f000000000000000000000000000000000000000000000000000000000000000081565b61029d60045481565b610474610454366004612e9e565b8051602081830181018051600a8252928201919093012091525460ff1681565b6040519015158152602001610281565b6103387f000000000000000000000000000000000000000000000000000000000000000081565b61029d6103e881565b600254610338906001600160a01b031681565b6104da6104d5366004612dc1565b611950565b604080519485526020850193909352918301526060820152608001610281565b61029d610508366004612ded565b611996565b61029d61051b366004612d0b565b611b19565b6103387f000000000000000000000000000000000000000000000000000000000000000081565b61025f611c84565b61029d60065481565b61029d60035481565b6001546001600160a01b0316610338565b61025f610580366004612f1e565b611c96565b610474610593366004612dc1565b600b60209081526000928352604080842090915290825290205460ff1681565b61025f6105c1366004612ded565b61219b565b6102746105d4366004612d0b565b61233e565b61025f61252c565b61029d6105ef366004612dc1565b612583565b610665610602366004612ded565b600860208190526000918252604090912080546001820154600283015460038401546004850154600586015460068701546007880154979098015495979496939560ff808516966101009095041694929391926001600160a01b0390921691908a565b604080519a8b5260208b0199909952978901969096529315156060880152911515608087015260a086015260c08501526001600160a01b031660e084015261010083015261012082015261014001610281565b61029d61271081565b6103387f000000000000000000000000000000000000000000000000000000000000000081565b61029d6106f6366004612d0b565b600c6020526000908152604090205481565b61029d61032081565b61025f61071f366004612d0b565b6125b4565b61072c6125ef565b336000908152600d6020526040812090805b825481101561088d57600083828154811061075b5761075b612f9a565b90600052602060002090600402016003015484838154811061077f5761077f612f9a565b90600052602060002090600402016000015461079b9190612fc6565b9050806000036107ab575061087b565b60008483815481106107bf576107bf612f9a565b906000526020600020906004020160020154426107dc9190612fc6565b905060006301e133806107f783670de0b6b3a7640000612fdf565b6108019190612ff6565b90506000610819612710670de0b6b3a7640000612fdf565b8261082661032087612fdf565b6108309190612fdf565b61083a9190612ff6565b90508015610876574287868154811061085557610855612f9a565b60009182526020909120600260049092020101556108738187613018565b95505b505050505b806108858161302b565b91505061073e565b50600081116108e35760405162461bcd60e51b815260206004820152601760248201527f4e6f20696e74657265737420746f20776974686472617700000000000000000060448201526064015b60405180910390fd5b6109176001600160a01b037f0000000000000000000000000000000000000000000000000000000000000000163383612619565b60405181815233907feab2c64fe6274878371122aa1c2f1fd513478898c6a8a3a166f68a9ef6866de99060200160405180910390a250506109586001600055565b565b6001600160a01b0381166000908152600960209081526040918290208054835181840281018401909352808452606093928301828280156109ba57602002820191906000526020600020905b8154815260200190600101908083116109a6575b50505050509050919050565b6000806109d38442612fc6565b905060006301e133806109ee83670de0b6b3a7640000612fdf565b6109f89190612ff6565b9050610a0e612710670de0b6b3a7640000612fdf565b81610a198689612fdf565b610a239190612fdf565b610a2d9190612ff6565b9695505050505050565b610a3f6125ef565b80600003610a605760405163162908e360e11b815260040160405180910390fd5b6040516331a9108f60e11b8152600481018390526000907f00000000000000000000000000000000000000000000000000000000000000006001600160a01b031690636352211e90602401602060405180830381865afa158015610ac8573d6000803e3d6000fd5b505050506040513d601f19601f82011682018060405250810190610aec9190613054565b9050806001600160a01b03167f42c5c5392f1cc52a311cb73e5bdb7a6ecca0ce9b627fe4d65630e5f170d3a251604051610b4a9060208082526010908201526f537570706c696572206164647265737360801b604082015260600190565b60405180910390a26000610b5d826114e8565b90506000805160206132b983398151915281604051610ba791906040808252600e908201526d21b0b631bab630ba32b210262a2b60911b6060820152602081019190915260800190565b60405180910390a160405163484d384560e11b8152600481018590526000907f00000000000000000000000000000000000000000000000000000000000000006001600160a01b03169063909a708a90602401600060405180830381865afa158015610c17573d6000803e3d6000fd5b505050506040513d6000823e601f3d908101601f19168201604052610c3f91908101906130e6565b90506000805160206132b98339815191528160600151604051610c949190604080825260159082015274125b9d9bda58d94818dc99591a5d08185b5bdd5b9d605a1b6060820152602081019190915260800190565b60405180910390a16000612710838360600151610cb19190612fdf565b610cbb9190612ff656b90506000805160206132b983398151915281604051610d08919060408082526011908201527013585e08189bdc9c9bddc8185b5bdd5b9d607a1b6060820152602081019190915260800190565b60405180910390a1604080518181526017818301527f52657175657374656420626f72726f7720616d6f756e7400000000000000000060608201526020810187905290516000805160206132b98339815191529181900360800190a180851115610d8557604051630e25379960e21b815260040160405180910390fd5b42826080015111610da957604051630f04e9cf60e41b815260040160405180910390fd5b6001600160a01b0384166000908152600b6020908152604080832089845290915290205460ff1615610dee5760405163b9000c3b60e01b815260040160405180910390fd5b8160c00151610e1057604051635c6754a560e11b815260040160405180910390fd5b6040516323b872dd60e01b81526001600160a01b038581166004830152306024830152604482018890527f000000000000000000000000000000000000000000000000000000000000000016906323b872dd90606401600060405180830381600087803b158015610e8057600080fd5b505af1158015610e94573d6000803e3d6000fd5b5050505060068501546040518381526001600160a01b039091169087907f512d3e65b3e58c2187bb1872aa435dba5bd09c1c03823ba56ab70aac411e4a219060200160405180910390a360405186907fd20dd6615233f6ea374fecbfd548d1c1666cf4b91a97fd0a457a43b03ae37cad90600090a250505050506114e56001600055565b61192e612c06565b600280546001600160a01b0319166001600160a01b0392909216919091179055565b600d602052816000526040600020818154811061196c57600080fd5b60009182526020909120600490910201805460018201546002830154600390930154919450925084565b60405163484d384560e11b81526004810182905260009081906001600160a01b037f0000000000000000000000000000000000000000000000000000000000000000169063909a708a90602401600060405180830381865afa158015611a00573d6000803e3d6000fd5b505050506040513d6000823e601f3d908101601f19168201604052611a2891908101906130e6565b905060006064603c8360600151611a3f9190612fdf565b611a499190612ff6565b604051635a2d572960e11b81523360048201529091506000906001600160a01b037f0000000000000000000000000000000000000000000000000000000000000000169063b45aae5290602401602060405180830381865afa158015611ab3573d6000803e3d6000fd5b505050506040513d601f19601f82011682018060405250810190611ad791906131ee565b60ff1690508015611b11576064611aef82600a612fdf565b611afa906064613018565b611b049084612fdf565b611b0e9190612ff6565b91505b509392505050565b6001600160a01b0381166000908152600d6020526040812081805b8254811015611c55576000838281548110611b5157611b51612f9a565b906000526020600020906004020160030154848381548110611b7557611b75612f9a565b906000526020600020906004020160000154611b919190612fc6565b905080600003611ba15750611c43565b6000848381548110611bb557611bb5612f9a565b90600052602060002090600402016002015442611bd29190612fc6565b905060006301e13380611bed83670de0b6b3a7640000612fdf565b611bf79190612ff6565b90506000611c0f612710670de0b6b3a7640000612fdf565b82611c1c61032087612fdf565b611c269190612fdf565b611c309190612ff6565b9050611c3c8187613018565b9550505050505b80611c4d8161302b565b915050611b34565b506001600160a01b038416600090815260076020526040902060010154611c7c9082613018565b949350505050565b611c8c612c06565b6109586000612c33565b611c9e6125ef565b6000838152600860205260409020600381015460ff16158015611ccb57506003810154610100900460ff16155b611d0e5760405162461bcd60e51b8152602060048201526014602482015273131bd85b88185b1c9958591e481cd95d1d1b195960621b60448201526064016108da565b80600201544211611d545760405162461bcd60e51b815260206004820152601060248201526f4c6f616e206e6f74206f76657264756560801b60448201526064016108da565b6000611d6b826001015483600501546103e86109c6565b905080826004016000828254611d819190613018565b90915550504260058301556001820154600090611d9f908390613018565b905060006103e860c88560040154611db79190612fdf565b611dc19190612ff6565b90508060056000828254611dd59190613018565b909155505060038401805461ff0019166101001790556006840180546001600160a01b039081166000908152600b602090815260408083208c84528252808320805460ff19169055600189015494549093168252600c90529081208054909190611e40908490612fc6565b9091555050600184015460048054600090611e5c908490612fc6565b90915550506002546001600160a01b031615611edd5760025460068501546040516366a2a27960e11b81526001600160a01b039182166004820152602481018a905291169063cd4544f290604401600060405180830381600087803b158015611ec457600080fd5b505af1158015611ed8573d6000803e3d6000fd5b505050505b6001600a8787604051611ef1929190613211565b908152604051908190036020018120805492151560ff199093169290921790915560068501546001600160a01b0316907f42c5c5392f1cc52a311cb73e5bdb7a6ecca0ce9b627fe4d65630e5f170d3a25190611f70906020808252600f908201526e4265666f726520736c617368696e6760881b604082015260600190565b60405180910390a2600684015460405163ca5bbe4360e01b81526001600160a01b0391821660048201527f00000000000000000000000000000000000000000000000000000000000000009091169063ca5bbe4390602401600060405180830381600087803b158015611fe257600080fd5b505af1158015611ff6573d6000803e3d6000fd5b50505060068501546040516001600160a01b0390911691507f42c5c5392f1cc52a311cb73e5bdb7a6ecca0ce9b627fe4d65630e5f170d3a2519061205c906020808252600e908201526d416674657220736c617368696e6760901b604082015260600190565b60405180910390a2604051630852cd8d60e31b8152600481018890527f00000000000000000000000000000000000000000000000000000000000000006001600160a01b0316906342966c6890602401600060405180830381600087803b1580156120c657600080fd5b505af11580156120da573d6000803e3d6000fd5b5050505060068401546040518381526001600160a01b039091169088907f0256bdf47e9aff5784070d6cab332d79f81fc6b8c8ed875565982a423a389e3a9060200160405180910390a37fa76a82661b19a40942574f6cc378f486fb7b533e455d9a43dc276f2b0b2639fc8686604051612155929190613221565b60405180910390a160405187907fd20dd6615233f6ea374fecbfd548d1c1666cf4b91a97fd0a457a43b03ae37cad90600090a2505050506121966001600055565b505050565b6121a36125ef565b600081116121f35760405162461bcd60e51b815260206004820152601d60248201527f416d6f756e74206d7573742062652067726561746572207468616e203000000060448201526064016108da565b33600090815260076020526040902054156122115761221133612678565b6122466001600160a01b037f000000000000000000000000000000000000000000000000000000000000000016333084612bc7565b3360009081526007602052604081208054839290612265908490613018565b90915550503360009081526007602052604081204260029091015560038054839290612292908490613018565b9091555050336000818152600d602090815260408083208151608081018352868152428185018181528285019182526060830187815284546001818101875595895296909720925160049096029092019485559051918401919091555160028301559151600390910155517fe1fffcc4923d04b559f4d29a8bfc6cda04eb5b0d3c460751c2402c5c5cc9109c9061232c9084815260200190565b60405180910390a26114e56001600055565b6001600160a01b038116600090815260096020908152604080832080548251818502810185019093528084526060939283018282801561239d57602002820191906000526020600020905b815481526020019060010190808311612389575b505050505090506000805b8251811015612423576001600160a01b0385166000908152600b6020526040812084519091908590849081106123e0576123e0612f9a565b60209081029190910181015182528101919091526040016000205460ff1615612411578161240d8161302b565b9250505b8061241b8161302b565b9150506123a8565b5060008167ffffffffffffffff81111561243f5761243f612e06565b604051908082528060200260200182016040528015612468578160200160208202803683370190505b5090506000805b8451811015612521576001600160a01b0387166000908152600b6020526040812086519091908790849081106124a7576124a7612f9a565b60209081029190910181015182528101919091526040016000205460ff161561250f578481815181106124dc576124dc612f9a565b60200260200101518383815181106124f6576124f6612f9a565b60209081029190910101528161250b8161302b565b9250505b806125198161302b565b91505061246f565b509095945050505050565b612534612c06565b6005805460009091556114e56125526001546001600160a01b031690565b6001600160a01b037f0000000000000000000000000000000000000000000000000000000000000000169083612619565b6009602052816000526040600020818154811061259f57600080fd5b90600052602060002001600091509150505481565b6125bc612c06565b6001600160a01b0381166125e657604051631e4fbdf760e01b8152600060048201526024016108da565b6114e581612c33565b60026000540361261257604051633ee5aeb560e01b815260040160405180910390fd5b6002600055565b6040516001600160a01b0383811660248301526044820183905261219691859182169063a9059cbb906064015b604051602081830303815290604052915060e01b6020820180516001600160e01b038381831617835250505050612c85565b6001600160a01b03811660009081526007602052604090208054156111a95760006126ae826000015483600201546103206109c6565b9050808260010160008282546126c49190613018565b9091555050426002830155505050565b604051635a2d572960e11b81526001600160a01b03828116600483015260009182917f0000000000000000000000000000000000000000000000000000000000000000169063b45aae5290602401602060405180830381865afa15801561273f573d6000803e3d6000fd5b505050506040513d601f19601f8201168201806040525081019061276391906131ee565b90508060ff1660010361277a57506101f492915050565b8060ff1660020361278f57506103e892915050565b8060ff166003036127a457506105dc92915050565b8060ff166004036127b957506107d092915050565b50600092915050565b6040516326d352ab60e11b81526001600160a01b03828116600483015260009182917f00000000000000000000000000000000000000000000000000000000000000001690634da6a55690602401602060405180830381865afa15801561282d573d6000803e3d6000fd5b505050506040513d601f19601f820116820180604052508101906128519190613250565b604051632f4b12bd60e01b81526001600160a01b0385811660048301529192506000917f00000000000000000000000000000000000000000000000000000000000000001690632f4b12bd90602401602060405180830381865afa1580156128bd573d6000803e3d6000fd5b505050506040513d601f19601f820116820180604052508101906128e19190613250565b90508115806128ee575080155b156128fd575060009392505050565b6000612911670de0b6b3a764000084612ff6565b90506000815b801561293c57612928600a82612ff6565b9050816129348161302b565b925050612917565b600080831161294c576000612957565b612957600184612fc6565b9050600a61016d861061296c57506014612998565b60b4861061297c5750600f612998565b605a861061298c5750600d612998565b602d86106129985750600a5b6000600a6129a68385612fdf565b6129b19060c8612fdf565b6129bb9190612ff6565b90506103e88111156129cc57506103e85b9998505050505050505050565b6002546000906001600160a01b03166129f457506000919050565b600254604051630551d9f360e51b81526001600160a01b038481166004830152600092169063aa3b3e6090602401602060405180830381865afa158015612a3f573d6000803e3d6000fd5b505050506040513d601f19601f82011682018060405250810190612a639190613250565b600254604051632937238960e01b81526001600160a01b03868116600483015292935060009290911690632937238990602401602060405180830381865afa158015612ab3573d6000803e3d6000fd5b505050506040513d601f19601f82011682018060405250810190612ad79190613250565b60025460405163272b6e7560e11b81526001600160a01b03878116600483015292935060009290911690634e56dcea90602401602060405180830381865afa158015612b27573d6000803e3d6000fd5b505050506040513d601f19601f82011682018060405250810190612b4b9190613250565b9050600083600003612b6a57612b636103e882613269565b9050612b81565b60028410612b8157612b7e6105dc82613291565b90505b60018310158015612b93575060028311155b15612ba757612ba46101f482613291565b90505b60058210612bbe57612bbb6101f482613269565b90505b95945050505050565b6040516001600160a01b038481166024830152838116604483015260648201839052612c009186918216906323b872dd90608401612646565b50505050565b6001546001600160a01b031633146109585760405163118cdaa760e01b81523360048201526024016108da565b600180546001600160a01b038381166001600160a01b0319831681179093556040519116919082907f8be0079c531659141344cd1fd0a4f28419497f9722a3daafe3b4186f6b6457e090600090a35050565b600080602060008451602086016000885af180612ca8576040513d6000823e3d81fd5b50506000513d91508115612cc0578060011415612ccd565b6001600160a01b0384163b155b15612c0057604051635274afe760e01b81526001600160a01b03851660048201526024016108da565b6001600160a01b03811681146114e557600080fd5b600060208284031215612d1d57600080fd5b8135612d2881612cf6565b9392505050565b6020808252825182820181905260009190848201906040850190845b81811015612d6757835183529284019291840191600101612d4b565b50909695505050505050565b600080600060608486031215612d8857600080fd5b505081359360208301359350604090920135919050565b60008060408385031215612db257600080fd5b50508035926020909101359150565b60008060408385031215612dd457600080fd5b8235612ddf81612cf6565b946020939093013593505050565b600060208284031215612dff57600080fd5b5035919050565b634e487b7160e01b600052604160045260246000fd5b60405160e0810167ffffffffffffffff81118282101715612e3f57612e3f612e06565b60405290565b604051601f8201601f1916810167ffffffffffffffff81118282101715612e6e57612e6e612e06565b604052919050565b600067ffffffffffffffff821115612e9057612e90612e06565b50601f01601f191660200190565b600060208284031215612eb057600080fd5b813567ffffffffffffffff811115612ec757600080fd5b8201601f81018413612ed857600080fd5b8035612eeb612ee682612e76565b612e45565b818152856020838501011115612f0057600080fd5b81602084016020830137600091810160200191909152949350505050565b600080600060408486031215612f3357600080fd5b83359250602084013567ffffffffffffffff80821115612f5257600080fd5b818601915086601f830112612f6657600080fd5b813581811115612f7557600080fd5b876020828501011115612f8757600080fd5b6020830194508093505050509250925092565b634e487b7160e01b600052603260045260246000fd5b634e487b7160e01b600052601160045260246000fd5b81810381811115612fd957612fd9612fb0565b92915050565b8082028115828204841417612fd957612fd9612fb0565b60008261301357634e487b7160e01b600052601260045260246000fd5b500490565b80820180821115612fd957612fd9612fb0565b60006001820161303d5761303d612fb0565b5060010190565b805161304f81612cf6565b919050565b60006020828403121561306657600080fd5b8151612d2881612cf6565b60008261308257634e487b7160e01b600052601260045260246000fd5b500490565b808201828112600083128015821682158216171561328957613289612fb0565b505092915050565b81810360008312801583831316838312821617156132b1576132b1612fb0565b509291505056fe163ca2ec19b2c2ad67691607193f23e99b7909b01e5e5a8263acc82f942d9878a26469706673582212202d8807725079991d2232baf2ce75029e71e74eb025fdc124aa00f15c1097fdfa64736f6c63430008140033",
  "deployedBytecode": "0x608060405234801561001057600080fd5b50600436106102525760003560e01c8063587beabc116101465780639dd27538116100c3578063e1ec3c6811610087578063e1ec3c68146105f4578063e1f1c4a7146106b8578063e9cbd822146106c1578063eb084ad0146106e8578063f034bf0914610708578063f2fde38b1461071157600080fd5b80639dd2753814610585578063b6b55f25146105b3578063b8e9c533146105c6578063d0b7830b146105d9578063d8bad5bd146105e157600080fd5b8063715018a61161010a578063715018a61461054757806374b521421461054f5780637d882097146105585780638da5cb5b146105615780639144995d1461057257600080fd5b8063587beabc146104b45780635e1810c6146104c757806361a4d4ef146104fa5780636bfbc3091461050d5780636f4670ae1461052057600080fd5b806334fbc9a1116101d45780634bb6f06d116101985780634bb6f06d146104165780634c19386c1461043d5780634c5df94c146104465780634cf088d9146104845780634d9c4686146104ab57600080fd5b806334fbc9a1146103b7578063371fd8e6146103bf57806341af32a6146103d257806341e05aae146103da5780634607506a146103ed57600080fd5b8063194a4e7e1161021b578063194a4e7e146103085780632458988b146103115780632a196afb146103505780632e1a7d4d1461039157806334a1e0d7146103a457600080fd5b806263750c1461025757806302bf321f1461026157806305e1bd8c1461028a57806311067f6a146102ab57806315e70995146102f5575b600080fd5b61025f610724565b005b61027461026f366004612d0b565b61095a565b6040516102819190612d2f565b60405180910390f35b61029d610298366004612d73565b6109c6565b604051908152602001610281565b6102da6102b9366004612d0b565b60076020526000908152604090208054600182015460029092015490919083565b60408051938452602084019290925290820152606001610281565b61025f610303366004612d9f565b610a37565b61029d60055481565b6103387f000000000000000000000000000000000000000000000000000000000000000081565b6040516001600160a01b039091168152602001610281565b61036361035e366004612dc1565b6111ad565b604080519586526020860194909452911515928401929092529015156060830152608082015260a001610281565b61025f61039f366004612ded565b6112ae565b61029d6103b2366004612d0b565b6114e8565b61029d60c881565b61025f6103cd366004612ded565b6115aa565b61029d603c81565b61025f6103e8366004612d0b565b611926565b61029d6103fb366004612d0b565b6001600160a01b03166000908152600c602052604090205490565b6103387f000000000000000000000000000000000000000000000000000000000000000081565b61029d60045481565b610474610454366004612e9e565b8051602081830181018051600a8252928201919093012091525460ff1681565b6040519015158152602001610281565b6103387f000000000000000000000000000000000000000000000000000000000000000081565b61029d6103e881565b600254610338906001600160a01b031681565b6104da6104d5366004612dc1565b611950565b604080519485526020850193909352918301526060820152608001610281565b61029d610508366004612ded565b611996565b61029d61051b366004612d0b565b611b19565b6103387f000000000000000000000000000000000000000000000000000000000000000081565b61025f611c84565b61029d60065481565b61029d60035481565b6001546001600160a01b0316610338565b61025f610580366004612f1e565b611c96565b610474610593366004612dc1565b600b60209081526000928352604080842090915290825290205460ff1681565b61025f6105c1366004612ded565b61219b565b6102746105d4366004612d0b565b61233e565b61025f61252c565b61029d6105ef366004612dc1565b612583565b610665610602366004612ded565b600860208190526000918252604090912080546001820154600283015460038401546004850154600586015460068701546007880154979098015495979496939560ff808516966101009095041694929391926001600160a01b0390921691908a565b604080519a8b5260208b0199909952978901969096529315156060880152911515608087015260a086015260c08501526001600160a01b031660e084015261010083015261012082015261014001610281565b61029d61271081565b6103387f000000000000000000000000000000000000000000000000000000000000000081565b61029d6106f6366004612d0b565b600c6020526000908152604090205481565b61029d61032081565b61025f61071f366004612d0b565b6125b4565b61072c6125ef565b336000908152600d6020526040812090805b825481101561088d57600083828154811061075b5761075b612f9a565b90600052602060002090600402016003015484838154811061077f5761077f612f9a565b90600052602060002090600402016000015461079b9190612fc6565b9050806000036107ab575061087b565b60008483815481106107bf576107bf612f9a565b906000526020600020906004020160020154426107dc9190612fc6565b905060006301e133806107f783670de0b6b3a7640000612fdf565b6108019190612ff6565b90506000610819612710670de0b6b3a7640000612fdf565b8261082661032087612fdf565b6108309190612fdf565b61083a9190612ff6565b90508015610876574287868154811061085557610855612f9a565b60009182526020909120600260049092020101556108738187613018565b95505b505050505b806108858161302b565b91505061073e565b50600081116108e35760405162461bcd60e51b815260206004820152601760248201527f4e6f20696e74657265737420746f20776974686472617700000000000000000060448201526064015b60405180910390fd5b6109176001600160a01b037f0000000000000000000000000000000000000000000000000000000000000000163383612619565b60405181815233907feab2c64fe6274878371122aa1c2f1fd513478898c6a8a3a166f68a9ef6866de99060200160405180910390a250506109586001600055565b565b6001600160a01b0381166000908152600960209081526040918290208054835181840281018401909352808452606093928301828280156109ba57602002820191906000526020600020905b8154815260200190600101908083116109a6575b50505050509050919050565b6000806109d38442612fc6565b905060006301e133806109ee83670de0b6b3a7640000612fdf565b6109f89190612ff6565b9050610a0e612710670de0b6b3a7640000612fdf565b81610a198689612fdf565b610a239190612fdf565b610a2d9190612ff6565b9695505050505050565b610a3f6125ef565b80600003610a605760405163162908e360e11b815260040160405180910390fd5b6040516331a9108f60e11b8152600481018390526000907f00000000000000000000000000000000000000000000000000000000000000006001600160a01b031690636352211e90602401602060405180830381865afa158015610ac8573d6000803e3d6000fd5b505050506040513d601f19601f82011682018060405250810190610aec9190613054565b9050806001600160a01b03167f42c5c5392f1cc52a311cb73e5bdb7a6ecca0ce9b627fe4d65630e5f170d3a251604051610b4a9060208082526010908201526f537570706c696572206164647265737360801b604082015260600190565b60405180910390a26000610b5d826114e8565b90506000805160206132b983398151915281604051610ba791906040808252600e908201526d21b0b631bab630ba32b210262a2b60911b6060820152602081019190915260800190565b60405180910390a160405163484d384560e11b8152600481018590526000907f00000000000000000000000000000000000000000000000000000000000000006001600160a01b03169063909a708a90602401600060405180830381865afa158015610c17573d6000803e3d6000fd5b505050506040513d6000823e601f3d908101601f19168201604052610c3f91908101906130e6565b90506000805160206132b98339815191528160600151604051610c949190604080825260159082015274125b9d9bda58d94818dc99591a5d08185b5bdd5b9d605a1b6060820152602081019190915260800190565b60405180910390a16000612710838360600151610cb19190612fdf565b610cbb9190612ff656b90506000805160206132b983398151915281604051610d08919060408082526011908201527013585e08189bdc9c9bddc8185b5bdd5b9d607a1b6060820152602081019190915260800190565b60405180910390a1604080518181526017818301527f52657175657374656420626f72726f7720616d6f756e7400000000000000000060608201526020810187905290516000805160206132b98339815191529181900360800190a180851115610d8557604051630e25379960e21b815260040160405180910390fd5b42826080015111610da957604051630f04e9cf60e41b815260040160405180910390fd5b6001600160a01b0384166000908152600b6020908152604080832089845290915290205460ff1615610dee5760405163b9000c3b60e01b815260040160405180910390fd5b8160c00151610e1057604051635c6754a560e11b815260040160405180910390fd5b6040516323b872dd60e01b81526001600160a01b038581166004830152306024830152604482018890527f000000000000000000000000000000000000000000000000000000000000000016906323b872dd90606401600060405180830381600087803b158015610e8057600080fd5b505af1158015610e94573d6000803e3d6000fd5b5050505060068501546040518381526001600160a01b039091169087907f512d3e65b3e58c2187bb1872aa435dba5bd09c1c03823ba56ab70aac411e4a219060200160405180910390a360405186907fd20dd6615233f6ea374fecbfd548d1c1666cf4b91a97fd0a457a43b03ae37cad90600090a250505050506114e56001600055565b61192e612c06565b600280546001600160a01b0319166001600160a01b0392909216919091179055565b600d602052816000526040600020818154811061196c57600080fd5b60009182526020909120600490910201805460018201546002830154600390930154919450925084565b60405163484d384560e11b81526004810182905260009081906001600160a01b037f0000000000000000000000000000000000000000000000000000000000000000169063909a708a90602401600060405180830381865afa158015611a00573d6000803e3d6000fd5b505050506040513d6000823e601f3d908101601f19168201604052611a2891908101906130e6565b905060006064603c8360600151611a3f9190612fdf565b611a499190612ff6565b604051635a2d572960e11b81523360048201529091506000906001600160a01b037f0000000000000000000000000000000000000000000000000000000000000000169063b45aae5290602401602060405180830381865afa158015611ab3573d6000803e3d6000fd5b505050506040513d601f19601f82011682018060405250810190611ad791906131ee565b60ff1690508015611b11576064611aef82600a612fdf565b611afa906064613018565b611b049084612fdf565b611b0e9190612ff6565b91505b509392505050565b6001600160a01b0381166000908152600d6020526040812081805b8254811015611c55576000838281548110611b5157611b51612f9a565b906000526020600020906004020160030154848381548110611b7557611b75612f9a565b906000526020600020906004020160000154611b919190612fc6565b905080600003611ba15750611c43565b6000848381548110611bb557611bb5612f9a565b90600052602060002090600402016002015442611bd29190612fc6565b905060006301e13380611bed83670de0b6b3a7640000612fdf565b611bf79190612ff6565b90506000611c0f612710670de0b6b3a7640000612fdf565b82611c1c61032087612fdf565b611c269190612fdf565b611c309190612ff6565b9050611c3c8187613018565b9550505050505b80611c4d8161302b565b915050611b34565b506001600160a01b038416600090815260076020526040902060010154611c7c9082613018565b949350505050565b611c8c612c06565b6109586000612c33565b611c9e6125ef565b6000838152600860205260409020600381015460ff16158015611ccb57506003810154610100900460ff16155b611d0e5760405162461bcd60e51b8152602060048201526014602482015273131bd85b88185b1c9958591e481cd95d1d1b195960621b60448201526064016108da565b80600201544211611d545760405162461bcd60e51b815260206004820152601060248201526f4c6f616e206e6f74206f76657264756560801b60448201526064016108da565b6000611d6b826001015483600501546103e86109c6565b905080826004016000828254611d819190613018565b90915550504260058301556001820154600090611d9f908390613018565b905060006103e860c88560040154611db79190612fdf565b611dc19190612ff6565b90508060056000828254611dd59190613018565b909155505060038401805461ff0019166101001790556006840180546001600160a01b039081166000908152600b602090815260408083208c84528252808320805460ff19169055600189015494549093168252600c90529081208054909190611e40908490612fc6565b9091555050600184015460048054600090611e5c908490612fc6565b90915550506002546001600160a01b031615611edd5760025460068501546040516366a2a27960e11b81526001600160a01b039182166004820152602481018a905291169063cd4544f290604401600060405180830381600087803b158015611ec457600080fd5b505af1158015611ed8573d6000803e3d6000fd5b505050505b6001600a8787604051611ef1929190613211565b908152604051908190036020018120805492151560ff199093169290921790915560068501546001600160a01b0316907f42c5c5392f1cc52a311cb73e5bdb7a6ecca0ce9b627fe4d65630e5f170d3a25190611f70906020808252600f908201526e4265666f726520736c617368696e6760881b604082015260600190565b60405180910390a2600684015460405163ca5bbe4360e01b81526001600160a01b0391821660048201527f00000000000000000000000000000000000000000000000000000000000000009091169063ca5bbe4390602401600060405180830381600087803b158015611fe257600080fd5b505af1158015611ff6573d6000803e3d6000fd5b50505060068501546040516001600160a01b0390911691507f42c5c5392f1cc52a311cb73e5bdb7a6ecca0ce9b627fe4d65630e5f170d3a2519061205c906020808252600e908201526d416674657220736c617368696e6760901b604082015260600190565b60405180910390a2604051630852cd8d60e31b8152600481018890527f00000000000000000000000000000000000000000000000000000000000000006001600160a01b0316906342966c6890602401600060405180830381600087803b1580156120c657600080fd5b505af11580156120da573d6000803e3d6000fd5b5050505060068401546040518381526001600160a01b039091169088907f0256bdf47e9aff5784070d6cab332d79f81fc6b8c8ed875565982a423a389e3a9060200160405180910390a37fa76a82661b19a40942574f6cc378f486fb7b533e455d9a43dc276f2b0b2639fc8686604051612155929190613221565b60405180910390a160405187907fd20dd6615233f6ea374fecbfd548d1c1666cf4b91a97fd0a457a43b03ae37cad90600090a2505050506121966001600055565b505050565b6121a36125ef565b600081116121f35760405162461bcd60e51b815260206004820152601d60248201527f416d6f756e74206d7573742062652067726561746572207468616e203000000060448201526064016108da565b33600090815260076020526040902054156122115761221133612678565b6122466001600160a01b037f000000000000000000000000000000000000000000000000000000000000000016333084612bc7565b3360009081526007602052604081208054839290612265908490613018565b90915550503360009081526007602052604081204260029091015560038054839290612292908490613018565b9091555050336000818152600d602090815260408083208151608081018352868152428185018181528285019182526060830187815284546001818101875595895296909720925160049096029092019485559051918401919091555160028301559151600390910155517fe1fffcc4923d04b559f4d29a8bfc6cda04eb5b0d3c460751c2402c5c5cc9109c9061232c9084815260200190565b60405180910390a26114e56001600055565b6001600160a01b038116600090815260096020908152604080832080548251818502810185019093528084526060939283018282801561239d57602002820191906000526020600020905b815481526020019060010190808311612389575b505050505090506000805b8251811015612423576001600160a01b0385166000908152600b6020526040812084519091908590849081106123e0576123e0612f9a565b60209081029190910181015182528101919091526040016000205460ff1615612411578161240d8161302b565b9250505b8061241b8161302b565b9150506123a8565b5060008167ffffffffffffffff81111561243f5761243f612e06565b604051908082528060200260200182016040528015612468578160200160208202803683370190505b5090506000805b8451811015612521576001600160a01b0387166000908152600b6020526040812086519091908790849081106124a7576124a7612f9a565b60209081029190910181015182528101919091526040016000205460ff161561250f578481815181106124dc576124dc612f9a565b60200260200101518383815181106124f6576124f6612f9a565b60209081029190910101528161250b8161302b565b9250505b806125198161302b565b91505061246f565b509095945050505050565b612534612c06565b6005805460009091556114e56125526001546001600160a01b031690565b6001600160a01b037f0000000000000000000000000000000000000000000000000000000000000000169083612619565b6009602052816000526040600020818154811061259f57600080fd5b90600052602060002001600091509150505481565b6125bc612c06565b6001600160a01b0381166125e657604051631e4fbdf760e01b8152600060048201526024016108da565b6114e581612c33565b60026000540361261257604051633ee5aeb560e01b815260040160405180910390fd5b6002600055565b6040516001600160a01b0383811660248301526044820183905261219691859182169063a9059cbb906064015b604051602081830303815290604052915060e01b6020820180516001600160e01b038381831617835250505050612c85565b6001600160a01b03811660009081526007602052604090208054156111a95760006126ae826000015483600201546103206109c6565b9050808260010160008282546126c49190613018565b9091555050426002830155505050565b604051635a2d572960e11b81526001600160a01b03828116600483015260009182917f0000000000000000000000000000000000000000000000000000000000000000169063b45aae5290602401602060405180830381865afa15801561273f573d6000803e3d6000fd5b505050506040513d601f19601f8201168201806040525081019061276391906131ee565b90508060ff1660010361277a57506101f492915050565b8060ff1660020361278f57506103e892915050565b8060ff166003036127a457506105dc92915050565b8060ff166004036127b957506107d092915050565b50600092915050565b6040516326d352ab60e11b81526001600160a01b03828116600483015260009182917f00000000000000000000000000000000000000000000000000000000000000001690634da6a55690602401602060405180830381865afa15801561282d573d6000803e3d6000fd5b505050506040513d601f19601f820116820180604052508101906128519190613250565b604051632f4b12bd60e01b81526001600160a01b0385811660048301529192506000917f00000000000000000000000000000000000000000000000000000000000000001690632f4b12bd90602401602060405180830381865afa1580156128bd573d6000803e3d6000fd5b505050506040513d601f19601f820116820180604052508101906128e19190613250565b90508115806128ee575080155b156128fd575060009392505050565b6000612911670de0b6b3a764000084612ff6565b90506000815b801561293c57612928600a82612ff6565b9050816129348161302b565b925050612917565b600080831161294c576000612957565b612957600184612fc6565b9050600a61016d861061296c57506014612998565b60b4861061297c5750600f612998565b605a861061298c5750600d612998565b602d86106129985750600a5b6000600a6129a68385612fdf565b6129b19060c8612fdf565b6129bb9190612ff6565b90506103e88111156129cc57506103e85b9998505050505050505050565b6002546000906001600160a01b03166129f457506000919050565b600254604051630551d9f360e51b81526001600160a01b038481166004830152600092169063aa3b3e6090602401602060405180830381865afa158015612a3f573d6000803e3d6000fd5b505050506040513d601f19601f82011682018060405250810190612a639190613250565b600254604051632937238960e01b81526001600160a01b03868116600483015292935060009290911690632937238990602401602060405180830381865afa158015612ab3573d6000803e3d6000fd5b505050506040513d601f19601f82011682018060405250810190612ad79190613250565b60025460405163272b6e7560e11b81526001600160a01b03878116600483015292935060009290911690634e56dcea90602401602060405180830381865afa158015612b27573d6000803e3d6000fd5b505050506040513d601f19601f82011682018060405250810190612b4b9190613250565b9050600083600003612b6a57612b636103e882613269565b9050612b81565b60028410612b8157612b7e6105dc82613291565b90505b60018310158015612b93575060028311155b15612ba757612ba46101f482613291565b90505b60058210612bbe57612bbb6101f482613269565b90505b95945050505050565b6040516001600160a01b038481166024830152838116604483015260648201839052612c009186918216906323b872dd90608401612646565b50505050565b6001546001600160a01b031633146109585760405163118cdaa760e01b81523360048201526024016108da565b600180546001600160a01b038381166001600160a01b0319831681179093556040519116919082907f8be0079c531659141344cd1fd0a4f28419497f9722a3daafe3b4186f6b6457e090600090a35050565b600080602060008451602086016000885af180612ca8576040513d6000823e3d81fd5b50506000513d91508115612cc0578060011415612ccd565b6001600160a01b0384163b155b15612c0057604051635274afe760e01b81526001600160a01b03851660048201526024016108da565b6001600160a01b03811681146114e557600080fd5b600060208284031215612d1d57600080fd5b8135612d2881612cf6565b9392505050565b6020808252825182820181905260009190848201906040850190845b81811015612d6757835183529284019291840191600101612d4b565b50909695505050505050565b600080600060608486031215612d8857600080fd5b505081359360208301359350604090920135919050565b60008060408385031215612db257600080fd5b50508035926020909101359150565b60008060408385031215612dd457600080fd5b8235612ddf81612cf6565b946020939093013593505050565b600060208284031215612dff57600080fd5b5035919050565b634e487b7160e01b600052604160045260246000fd5b60405160e0810167ffffffffffffffff81118282101715612e3f57612e3f612e06565b60405290565b604051601f8201601f1916810167ffffffffffffffff81118282101715612e6e57612e6e612e06565b604052919050565b600067ffffffffffffffff821115612e9057612e90612e06565b50601f01601f191660200190565b600060208284031215612eb057600080fd5b813567ffffffffffffffff811115612ec757600080fd5b8201601f81018413612ed857600080fd5b8035612eeb612ee682612e76565b612e45565b818152856020838501011115612f0057600080fd5b8160208401602083013760009181016020019190915295945050505050565b600080600060408486031215612f3357600080fd5b83359250602084013567ffffffffffffffff80821115612f5257600080fd5b818601915086601f830112612f6657600080fd5b813581811115612f7557600080fd5b876020828501011115612f8757600080fd5b6020830194508093505050509250925092565b634e487b7160e01b600052603260045260246000fd5b634e487b7160e01b600052601160045260246000fd5b81810381811115612fd957612fd9612fb0565b92915050565b8082028115828204841417612fd957612fd9612fb0565b60008261301357634e487b7160e01b600052601260045260246000fd5b500490565b80820180821115612fd957612fd9612fb0565b60006001820161303d5761303d612fb0565b5060010190565b805161304f81612cf6565b919050565b60006020828403121561306657600080fd5b8151612d2881612cf6565b60008261308257634e487b7160e01b600052601260045260246000fd5b500490565b808201828112600083128015821682158216171561328957613289612fb0565b505092915050565b81810360008312801583831316838312821617156132b1576132b1612fb0565b509291505056fe163ca2ec19b2c2ad67691607193f23e99b7909b01e5e5a8263acc82f942d9878a26469706673582212202d8807725079991d2232baf2ce75029e71e74eb025fdc124aa00f15c1097fdfa64736f6c63430008140033",
  "deployedLinkReferences": {}
}