{
    "_format": "hh-sol-artifact-1",
    "contractName": "Staking",
    "sourceName": "contracts/Staking.sol",
    "abi": [
        {
            "inputs": [
                {
                    "internalType": "address",
                    "name": "_metrikToken",
                    "type": "address"
                }
            ],
            "stateMutability": "nonpayable",
            "type": "constructor"
        },
        {
            "inputs": [],
            "name": "AlreadyStaked",
            "type": "error"
        },
        {
            "inputs": [],
            "name": "InvalidAmount",
            "type": "error"
        },
        {
            "inputs": [],
            "name": "InvalidDuration",
            "type": "error"
        },
        {
            "inputs": [],
            "name": "NoStakeFound",
            "type": "error"
        },
        {
            "inputs": [
                {
                    "internalType": "address",
                    "name": "owner",
                    "type": "address"
                }
            ],
            "name": "OwnableInvalidOwner",
            "type": "error"
        },
        {
            "inputs": [
                {
                    "internalType": "address",
                    "name": "account",
                    "type": "address"
                }
            ],
            "name": "OwnableUnauthorizedAccount",
            "type": "error"
        },
        {
            "inputs": [],
            "name": "ReentrancyGuardReentrantCall",
            "type": "error"
        },
        {
            "inputs": [
                {
                    "internalType": "address",
                    "name": "token",
                    "type": "address"
                }
            ],
            "name": "SafeERC20FailedOperation",
            "type": "error"
        },
        {
            "inputs": [],
            "name": "StakingPeriodNotEnded",
            "type": "error"
        },
        {
            "anonymous": false,
            "inputs": [
                {
                    "indexed": false,
                    "internalType": "string",
                    "name": "message",
                    "type": "string"
                },
                {
                    "indexed": true,
                    "internalType": "address",
                    "name": "user",
                    "type": "address"
                }
            ],
            "name": "DebugLog",
            "type": "event"
        },
        {
            "anonymous": false,
            "inputs": [
                {
                    "indexed": true,
                    "internalType": "address",
                    "name": "previousOwner",
                    "type": "address"
                },
                {
                    "indexed": true,
                    "internalType": "address",
                    "name": "newOwner",
                    "type": "address"
                }
            ],
            "name": "OwnershipTransferred",
            "type": "event"
        },
        {
            "anonymous": false,
            "inputs": [
                {
                    "indexed": true,
                    "internalType": "address",
                    "name": "user",
                    "type": "address"
                },
                {
                    "indexed": false,
                    "internalType": "uint256",
                    "name": "points",
                    "type": "uint256"
                }
            ],
            "name": "PointsUpdated",
            "type": "event"
        },
        {
            "anonymous": false,
            "inputs": [
                {
                    "indexed": true,
                    "internalType": "address",
                    "name": "user",
                    "type": "address"
                },
                {
                    "indexed": false,
                    "internalType": "uint256",
                    "name": "amount",
                    "type": "uint256"
                },
                {
                    "indexed": false,
                    "internalType": "uint256",
                    "name": "duration",
                    "type": "uint256"
                }
            ],
            "name": "Staked",
            "type": "event"
        },
        {
            "anonymous": false,
            "inputs": [
                {
                    "indexed": true,
                    "internalType": "address",
                    "name": "user",
                    "type": "address"
                },
                {
                    "indexed": false,
                    "internalType": "uint256",
                    "name": "amount",
                    "type": "uint256"
                }
            ],
            "name": "TokensSlashed",
            "type": "event"
        },
        {
            "anonymous": false,
            "inputs": [
                {
                    "indexed": true,
                    "internalType": "address",
                    "name": "user",
                    "type": "address"
                },
                {
                    "indexed": false,
                    "internalType": "uint256",
                    "name": "amount",
                    "type": "uint256"
                }
            ],
            "name": "Unstaked",
            "type": "event"
        },
        {
            "inputs": [],
            "name": "BASIS_POINTS",
            "outputs": [
                {
                    "internalType": "uint256",
                    "name": "",
                    "type": "uint256"
                }
            ],
            "stateMutability": "view",
            "type": "function"
        },
        {
            "inputs": [],
            "name": "BRONZE_TIER_MIN",
            "outputs": [
                {
                    "internalType": "uint256",
                    "name": "",
                    "type": "uint256"
                }
            ],
            "stateMutability": "view",
            "type": "function"
        },
        {
            "inputs": [],
            "name": "DIAMOND_TIER_MIN",
            "outputs": [
                {
                    "internalType": "uint256",
                    "name": "",
                    "type": "uint256"
                }
            ],
            "stateMutability": "view",
            "type": "function"
        },
        {
            "inputs": [],
            "name": "DURATION_MULTIPLIER",
            "outputs": [
                {
                    "internalType": "uint256",
                    "name": "",
                    "type": "uint256"
                }
            ],
            "stateMutability": "view",
            "type": "function"
        },
        {
            "inputs": [],
            "name": "GOLD_TIER_MIN",
            "outputs": [
                {
                    "internalType": "uint256",
                    "name": "",
                    "type": "uint256"
                }
            ],
            "stateMutability": "view",
            "type": "function"
        },
        {
            "inputs": [],
            "name": "POINTS_PER_TOKEN",
            "outputs": [
                {
                    "internalType": "uint256",
                    "name": "",
                    "type": "uint256"
                }
            ],
            "stateMutability": "view",
            "type": "function"
        },
        {
            "inputs": [],
            "name": "SILVER_TIER_MIN",
            "outputs": [
                {
                    "internalType": "uint256",
                    "name": "",
                    "type": "uint256"
                }
            ],
            "stateMutability": "view",
            "type": "function"
        },
        {
            "inputs": [
                {
                    "internalType": "address",
                    "name": "user",
                    "type": "address"
                }
            ],
            "name": "getActiveStakes",
            "outputs": [
                {
                    "components": [
                        {
                            "internalType": "uint256",
                            "name": "amount",
                            "type": "uint256"
                        },
                        {
                            "internalType": "uint256",
                            "name": "points",
                            "type": "uint256"
                        },
                        {
                            "internalType": "uint256",
                            "name": "startTime",
                            "type": "uint256"
                        },
                        {
                            "internalType": "uint256",
                            "name": "lastUpdateTime",
                            "type": "uint256"
                        },
                        {
                            "internalType": "uint256",
                            "name": "duration",
                            "type": "uint256"
                        }
                    ],
                    "internalType": "struct Staking.StakeInfo[]",
                    "name": "",
                    "type": "tuple[]"
                }
            ],
            "stateMutability": "view",
            "type": "function"
        },
        {
            "inputs": [
                {
                    "internalType": "address",
                    "name": "user",
                    "type": "address"
                }
            ],
            "name": "getStakeDuration",
            "outputs": [
                {
                    "internalType": "uint256",
                    "name": "",
                    "type": "uint256"
                }
            ],
            "stateMutability": "view",
            "type": "function"
        },
        {
            "inputs": [
                {
                    "internalType": "address",
                    "name": "user",
                    "type": "address"
                }
            ],
            "name": "getStakeHistoryLength",
            "outputs": [
                {
                    "internalType": "uint256",
                    "name": "",
                    "type": "uint256"
                }
            ],
            "stateMutability": "view",
            "type": "function"
        },
        {
            "inputs": [
                {
                    "internalType": "address",
                    "name": "user",
                    "type": "address"
                }
            ],
            "name": "getStakeInfo",
            "outputs": [
                {
                    "internalType": "uint256",
                    "name": "amount",
                    "type": "uint256"
                },
                {
                    "internalType": "uint256",
                    "name": "points",
                    "type": "uint256"
                },
                {
                    "internalType": "uint256",
                    "name": "startTime",
                    "type": "uint256"
                },
                {
                    "internalType": "uint256",
                    "name": "lastUpdateTime",
                    "type": "uint256"
                },
                {
                    "internalType": "uint256",
                    "name": "duration",
                    "type": "uint256"
                }
            ],
            "stateMutability": "view",
            "type": "function"
        },
        {
            "inputs": [
                {
                    "internalType": "address",
                    "name": "user",
                    "type": "address"
                }
            ],
            "name": "getStakeUsage",
            "outputs": [
                {
                    "internalType": "uint256",
                    "name": "total",
                    "type": "uint256"
                },
                {
                    "internalType": "uint256",
                    "name": "used",
                    "type": "uint256"
                },
                {
                    "internalType": "uint256",
                    "name": "free",
                    "type": "uint256"
                }
            ],
            "stateMutability": "view",
            "type": "function"
        },
        {
            "inputs": [
                {
                    "internalType": "address",
                    "name": "user",
                    "type": "address"
                }
            ],
            "name": "getStakedAmount",
            "outputs": [
                {
                    "internalType": "uint256",
                    "name": "",
                    "type": "uint256"
                }
            ],
            "stateMutability": "view",
            "type": "function"
        },
        {
            "inputs": [
                {
                    "internalType": "address",
                    "name": "user",
                    "type": "address"
                }
            ],
            "name": "getTier",
            "outputs": [
                {
                    "internalType": "uint8",
                    "name": "",
                    "type": "uint8"
                }
            ],
            "stateMutability": "view",
            "type": "function"
        },
        {
            "inputs": [],
            "name": "metrikToken",
            "outputs": [
                {
                    "internalType": "contract IERC20",
                    "name": "",
                    "type": "address"
                }
            ],
            "stateMutability": "view",
            "type": "function"
        },
        {
            "inputs": [],
            "name": "owner",
            "outputs": [
                {
                    "internalType": "address",
                    "name": "",
                    "type": "address"
                }
            ],
            "stateMutability": "view",
            "type": "function"
        },
        {
            "inputs": [],
            "name": "renounceOwnership",
            "outputs": [],
            "stateMutability": "nonpayable",
            "type": "function"
        },
        {
            "inputs": [
                {
                    "internalType": "address",
                    "name": "user",
                    "type": "address"
                }
            ],
            "name": "slashStakedTokens",
            "outputs": [],
            "stateMutability": "nonpayable",
            "type": "function"
        },
        {
            "inputs": [
                {
                    "internalType": "uint256",
                    "name": "amount",
                    "type": "uint256"
                },
                {
                    "internalType": "uint256",
                    "name": "duration",
                    "type": "uint256"
                }
            ],
            "name": "stake",
            "outputs": [],
            "stateMutability": "nonpayable",
            "type": "function"
        },
        {
            "inputs": [
                {
                    "internalType": "address",
                    "name": "",
                    "type": "address"
                },
                {
                    "internalType": "uint256",
                    "name": "",
                    "type": "uint256"
                }
            ],
            "name": "stakeHistory",
            "outputs": [
                {
                    "internalType": "uint256",
                    "name": "amount",
                    "type": "uint256"
                },
                {
                    "internalType": "uint256",
                    "name": "startTime",
                    "type": "uint256"
                },
                {
                    "internalType": "uint256",
                    "name": "duration",
                    "type": "uint256"
                },
                {
                    "internalType": "uint256",
                    "name": "usedForBorrow",
                    "type": "uint256"
                }
            ],
            "stateMutability": "view",
            "type": "function"
        },
        {
            "inputs": [
                {
                    "internalType": "address",
                    "name": "",
                    "type": "address"
                },
                {
                    "internalType": "uint256",
                    "name": "",
                    "type": "uint256"
                }
            ],
            "name": "stakes",
            "outputs": [
                {
                    "internalType": "uint256",
                    "name": "amount",
                    "type": "uint256"
                },
                {
                    "internalType": "uint256",
                    "name": "points",
                    "type": "uint256"
                },
                {
                    "internalType": "uint256",
                    "name": "startTime",
                    "type": "uint256"
                },
                {
                    "internalType": "uint256",
                    "name": "lastUpdateTime",
                    "type": "uint256"
                },
                {
                    "internalType": "uint256",
                    "name": "duration",
                    "type": "uint256"
                }
            ],
            "stateMutability": "view",
            "type": "function"
        },
        {
            "inputs": [],
            "name": "totalPoints",
            "outputs": [
                {
                    "internalType": "uint256",
                    "name": "",
                    "type": "uint256"
                }
            ],
            "stateMutability": "view",
            "type": "function"
        },
        {
            "inputs": [],
            "name": "totalStaked",
            "outputs": [
                {
                    "internalType": "uint256",
                    "name": "",
                    "type": "uint256"
                }
            ],
            "stateMutability": "view",
            "type": "function"
        },
        {
            "inputs": [
                {
                    "internalType": "address",
                    "name": "newOwner",
                    "type": "address"
                }
            ],
            "name": "transferOwnership",
            "outputs": [],
            "stateMutability": "nonpayable",
            "type": "function"
        },
        {
            "inputs": [
                {
                    "internalType": "uint256",
                    "name": "index",
                    "type": "uint256"
                }
            ],
            "name": "unstake",
            "outputs": [],
            "stateMutability": "nonpayable",
            "type": "function"
        },
        {
            "inputs": [
                {
                    "internalType": "address",
                    "name": "user",
                    "type": "address"
                },
                {
                    "internalType": "uint256",
                    "name": "amount",
                    "type": "uint256"
                },
                {
                    "internalType": "bool",
                    "name": "increase",
                    "type": "bool"
                }
            ],
            "name": "updateStakeUsage",
            "outputs": [],
            "stateMutability": "nonpayable",
            "type": "function"
        },
        {
            "inputs": [
                {
                    "internalType": "address",
                    "name": "",
                    "type": "address"
                }
            ],
            "name": "userPoints",
            "outputs": [
                {
                    "internalType": "uint256",
                    "name": "",
                    "type": "uint256"
                }
            ],
            "stateMutability": "view",
            "type": "function"
        }
    ],
    "bytecode": "0x60a060405234801561001057600080fd5b506040516117f63803806117f683398101604081905261002f916100c7565b6001600055338061005a57604051631e4fbdf760e01b81526000600482015260240160405180910390fd5b61006381610075565b506001600160a01b03166080526100f7565b600180546001600160a01b038381166001600160a01b0319831681179093556040519116919082907f8be0079c531659141344cd1fd0a4f28419497f9722a3daafe3b4186f6b6457e090600090a35050565b6000602082840312156100d957600080fd5b81516001600160a01b03811681146100f057600080fd5b9392505050565b6080516116cf610127600039600081816102bf0152818161071f01528181610b69015261101601526116cf6000f3fe608060405234801561001057600080fd5b50600436106101a95760003560e01c8063817b1cd2116100f9578063c345315311610097578063dda397f611610071578063dda397f6146103e5578063e1f1c4a71461040e578063f2fde38b14610417578063f50ddbc71461042a57600080fd5b8063c3453153146103b7578063c52f7ab7146103ca578063ca5bbe43146103d257600080fd5b8063ac5d9723116100d3578063ac5d97231461033e578063b45aae521461034e578063b66d825214610373578063b8542277146103a657600080fd5b8063817b1cd2146103145780638da5cb5b1461031d578063a8f389c01461032e57600080fd5b806339cc8fe511610166578063584b62a111610140578063584b62a11461027f5780636f4670ae146102ba578063715018a6146102f95780637b0472f01461030157600080fd5b806339cc8fe5146102525780634da6a55614610263578063567142be1461027657600080fd5b80630a4ad7d2146101ae5780630f513164146101e15780631747e0b0146101f75780632e17de78146102175780632f4b12bd1461022c578063319af2da1461023f575b600080fd5b6101c16101bc36600461149c565b61044a565b604080519384526020840192909252908201526060015b60405180910390f35b6101e9600181565b6040519081526020016101d8565b61020a61020536600461149c565b6104f9565b6040516101d891906114b7565b61022a610225366004611525565b6105a0565b005b6101e961023a36600461149c565b6107bd565b61022a61024d36600461153e565b61088d565b6101e969010f0cf064dd5920000081565b6101e961027136600461149c565b610a03565b6101e960035481565b61029261028d366004611583565b610a8a565b604080519586526020860194909452928401919091526060830152608082015260a0016101d8565b6102e17f000000000000000000000000000000000000000000000000000000000000000081565b6040516001600160a01b0390911681526020016101d8565b61022a610ad8565b61022a61030f3660046115ad565b610aec565b6101e960025481565b6001546001600160a01b03166102e1565b6101e968878678326eac90000081565b6101e9683635c9adc5dea0000081565b61036161035c36600461149c565b610d55565b60405160ff90911681526020016101d8565b610386610381366004611583565b610dd2565b6040805194855260208501939093529183015260608201526080016101d8565b6101e969021e19e0c9bab240000081565b6102926103c536600461149c565b610e18565b6101e9600281565b61022a6103e036600461149c565b610e91565b6101e96103f336600461149c565b6001600160a01b031660009081526006602052604090205490565b6101e961271081565b61022a61042536600461149c565b61115f565b6101e961043836600461149c565b60056020526000908152604090205481565b6001600160a01b038116600090815260066020526040812081908190815b81548110156104e557818181548110610483576104836115cf565b906000526020600020906004020160000154856104a091906115fb565b94508181815481106104b4576104b46115cf565b906000526020600020906004020160030154846104d191906115fb565b9350806104dd81611614565b915050610468565b506104f0838561162d565b93959294505050565b6001600160a01b0381166000908152600460209081526040808320805482518185028101850190935280835260609492939192909184015b8282101561059557838290600052602060002090600502016040518060a00160405290816000820154815260200160018201548152602001600282015481526020016003820154815260200160048201548152505081526020019060010190610531565b505050509050919050565b6105a861119a565b3360009081526004602052604090205481106106015760405162461bcd60e51b8152602060048201526013602482015272092dcecc2d8d2c840e6e8c2d6ca40d2dcc8caf606b1b60448201526064015b60405180910390fd5b336000908152600460205260408120805483908110610622576106226115cf565b90600052602060002090600502019050806000015460000361065757604051632cdf478160e11b815260040160405180910390fd5b8060040154816002015461066b91906115fb565b42101561068b5760405163e733132560e01b815260040160405180910390fd5b61069533836111c4565b80546001820154600280548391906000906106b190849061162d565b9250508190555080600360008282546106ca919061162d565b909155505033600090815260056020526040812080548392906106ee90849061162d565b9091555050600080845560018401819055600284018190556003840181905560048401556107466001600160a01b037f00000000000000000000000000000000000000000000000000000000000000001633846112ed565b60405182815233907f0f5bb82176feb1b5e747e28471aa92156a04d9f3ab9f45f28e2d704232b93f759060200160405180910390a23360008181526005602090815260409182902054915191825260008051602061167a833981519152910160405180910390a25050506107ba6001600055565b50565b600080805b6001600160a01b038416600090815260046020526040902054811015610878576001600160a01b038416600090815260046020526040902080548391908390811061080f5761080f6115cf565b9060005260206000209060050201600401541115610866576001600160a01b0384166000908152600460205260409020805482908110610851576108516115cf565b90600052602060002090600502016004015491505b8061087081611614565b9150506107c2565b506108866201518082611640565b9392505050565b610895611351565b6001600160a01b03831660009081526006602052604081209083905b8254811080156108c15750600082115b156109fb576000846108f6578382815481106108df576108df6115cf565b906000526020600020906004020160030154610948565b838281548110610908576109086115cf565b90600052602060002090600402016003015484838154811061092c5761092c6115cf565b906000526020600020906004020160000154610948919061162d565b90506000838210610959578361095b565b815b905085156109a15780858481548110610976576109766115cf565b9060005260206000209060040201600301600082825461099691906115fb565b909155506109da9050565b808584815481106109b4576109b46115cf565b906000526020600020906004020160030160008282546109d4919061162d565b90915550505b6109e4818561162d565b9350505080806109f390611614565b9150506108b1565b505050505050565b600080805b6001600160a01b038416600090815260046020526040902054811015610a83576001600160a01b0384166000908152600460205260409020805482908110610a5257610a526115cf565b90600052602060002090600502016000015482610a6f91906115fb565b915080610a7b81611614565b915050610a08565b5092915050565b60046020528160005260406000208181548110610aa657600080fd5b600091825260209091206005909102018054600182015460028301546003840154600490940154929550909350919085565b610ae0611351565b610aea600061137e565b565b610af461119a565b81600003610b155760405163162908e360e11b815260040160405180910390fd5b60b4811015610b3757604051637616640160e01b815260040160405180910390fd5b6301e13380811115610b5c57604051637616640160e01b815260040160405180910390fd5b610b916001600160a01b037f0000000000000000000000000000000000000000000000000000000000000000163330856113d0565b6000610b9e600184611662565b905062ed4e008210610bb857610bb5600282611662565b90505b336000818152600460208181526040808420815160a08101835289815280840188815242828501818152606080850183815260808087018f8152885460018181018b55998e528b8e2098516005909102909801978855955187890155925160028088019190915590516003808801919091559451958a019590955599895260068752858920865191820187528d82528188019283529581018c815299810189815286548087018855968a529689209051959097029096019384559451918301919091559451818601559051910155815485929190610c979084906115fb565b925050819055508060036000828254610cb091906115fb565b90915550503360009081526005602052604081208054839290610cd49084906115fb565b9091555050604080518481526020810184905233917f1449c6dd7851abc30abf37f57715f492010519147cc2652fbc38202c18a6ee90910160405180910390a23360008181526005602090815260409182902054915191825260008051602061167a833981519152910160405180910390a250610d516001600055565b5050565b600080610d6183610a03565b905069021e19e0c9bab24000008110610d7d5750600492915050565b69010f0cf064dd592000008110610d975750600392915050565b68878678326eac9000008110610db05750600292915050565b683635c9adc5dea000008110610dc95750600192915050565b50600092915050565b60066020528160005260406000208181548110610dee57600080fd5b60009182526020909120600490910201805460018201546002830154600390930154919450925084565b60008060008060008060046000886001600160a01b03166001600160a01b03168152602001908152602001600020600081548110610e5857610e586115cf565b600091825260209091206005909102018054600182015460028301546003840154600490940154929b919a509850919650945092505050565b610e99611351565b6001600160a01b038116600090815260046020526040812080548290610ec157610ec16115cf565b906000526020600020906005020190506000816000015411610f165760405162461bcd60e51b815260206004820152600e60248201526d139bc81cdd185ad948199bdd5b9960921b60448201526064016105f8565b8054600182015460028054839190600090610f3290849061162d565b925050819055508060036000828254610f4b919061162d565b90915550506001600160a01b03841660009081526005602052604081208054839290610f7890849061162d565b9091555050600080845560018401819055600284018190556003840181905560048401556040516001600160a01b038516907f42c5c5392f1cc52a311cb73e5bdb7a6ecca0ce9b627fe4d65630e5f170d3a25190610ff8906020808252600e908201526d4265666f7265206275726e696e6760901b604082015260600190565b60405180910390a2604051630852cd8d60e31b8152600481018390527f00000000000000000000000000000000000000000000000000000000000000006001600160a01b0316906342966c6890602401600060405180830381600087803b15801561106257600080fd5b505af1158015611076573d6000803e3d6000fd5b50505050836001600160a01b03167f42c5c5392f1cc52a311cb73e5bdb7a6ecca0ce9b627fe4d65630e5f170d3a2516040516110d3906020808252600d908201526c4166746572206275726e696e6760981b604082015260600190565b60405180910390a2836001600160a01b03167ff71d4eeef63c86ffc692e306c623b01b8373e091da8ee455aa0fe26305a4981c8360405161111691815260200190565b60405180910390a26001600160a01b03841660008181526005602090815260409182902054915191825260008051602061167a833981519152910160405180910390a250505050565b611167611351565b6001600160a01b03811661119157604051631e4fbdf760e01b8152600060048201526024016105f8565b6107ba8161137e565b6002600054036111bd57604051633ee5aeb560e01b815260040160405180910390fd5b6002600055565b6001600160a01b03821660009081526004602052604081208054839081106111ee576111ee6115cf565b90600052602060002090600502019050806000015460000361120f57505050565b6000816003015442611221919061162d565b90506000826004015482846001015461123a9190611662565b6112449190611640565b90508083600101600082825461125a91906115fb565b90915550504260038401556001600160a01b0385166000908152600560205260408120805483929061128d9084906115fb565b9250508190555080600360008282546112a691906115fb565b90915550506001600160a01b03851660008181526005602090815260409182902054915191825260008051602061167a833981519152910160405180910390a25050505050565b6040516001600160a01b0383811660248301526044820183905261134c91859182169063a9059cbb906064015b604051602081830303815290604052915060e01b6020820180516001600160e01b03838183161783525050505061140f565b505050565b6001546001600160a01b03163314610aea5760405163118cdaa760e01b81523360048201526024016105f8565b600180546001600160a01b038381166001600160a01b0319831681179093556040519116919082907f8be0079c531659141344cd1fd0a4f28419497f9722a3daafe3b4186f6b6457e090600090a35050565b6040516001600160a01b0384811660248301528381166044830152606482018390526114099186918216906323b872dd9060840161131a565b50505050565b600080602060008451602086016000885af180611432576040513d6000823e3d81fd5b50506000513d9150811561144a578060011415611457565b6001600160a01b0384163b155b1561140957604051635274afe760e01b81526001600160a01b03851660048201526024016105f8565b80356001600160a01b038116811461149757600080fd5b919050565b6000602082840312156114ae57600080fd5b61088682611480565b602080825282518282018190526000919060409081850190868401855b828110156115185781518051855286810151878601528581015186860152606080820151908601526080908101519085015260a090930192908501906001016114d4565b5091979650505050505050565b60006020828403121561153757600080fd5b5035919050565b60008060006060848603121561155357600080fd5b61155c84611480565b9250602084013591506040840135801515811461157857600080fd5b809150509250925092565b6000806040838503121561159657600080fd5b61159f83611480565b946020939093013593505050565b600080604083850312156115c057600080fd5b50508035926020909101359150565b634e487b7160e01b600052603260045260246000fd5b634e487b7160e01b600052601160045260246000fd5b8082018082111561160e5761160e6115e5565b92915050565b600060018201611626576116266115e5565b5060010190565b8181038181111561160e5761160e6115e5565b60008261165d57634e487b7160e01b600052601260045260246000fd5b500490565b808202811582820484141761160e5761160e6115e556fea05f39e6d8d4e060324edb900f0f5909de621fd93f19ccf65ba74e5965c98c36a26469706673582212200376893a299f14e594d38acc03f61bd400afd2a217bbd4eb392ec064e5ad699264736f6c63430008140033",
    "linkReferences": {},
    "deployedLinkReferences": {}
}